:020000000C945E
:1000020033000C9400000C9400000C9400000C943B
:1000120000000C9400000C9400000C9400000C945E
:1000220000000C9400000C9400000C9400000C944E
:1000320000000C9400000C9400000C9400000C943E
:1000420000000C9400000C9400000C9400000C942E
:100052000000000080C00200060054000200680197
:1000620056000000F894EE27ECBBF1E0FBBFEBBFBB
:10007200E5BF8DE0A2E0BB27ED938A95E9F780E02A
:1000820094E0A0E6ED930197E9F7E8E5F0E08591C9
:100092009591009761F0A591B59105901590BF01DA
:1000A200F00105900D920197E1F7FB01F0CFEFE52A
:1000B200EDBFE4E0EEBFC0E6D1E00C941602AA93D5
:1000C200E881E064E7B98BE18A95F1F7369A349BCF
:1000D200FECF349AE4B1F5B10C94DE03AA931A93DD
:1000E2000E94E0030E947C040E94E003A0EC0E94B4
:1000F200E503A9810E94E5030E947C040E94E003BB
:10010200A1EC0E94E503A0E00E9495041E2F0E942C
:10011200E0030E948B040E94E003E12F18810C94FB
:100122008A03A1E0DBDFF0E0E619F7092F010024E2
:10013200401450040CF42201E0E8F0E0E415F50567
:1001420024F4EFEFF0E04E1A5F0AE0E8FFEF4E16FC
:100152005F0624F4F201E150FF4F2F010024401406
:10016200500474F0E8E00E94E803ABE20E949803B6
:10017200D2010E94EB03D2010E94F703D20114C004
:10018200002440145004A4F4E8E00E94E803ADE225
:100192000E9498030E9403040E94EB030E9403043E
:1001A2000E94F7030E940304EAE0F0E00E940804C0
:1001B200EEE1F0E0E415F5052CF0E2EEFFEF4E166D
:1001C2005F063CF4F201A3E0B0E00E94DE042F01DE
:1001D20002C0440C551CF201AFEFBFEF0E94DE04D7
:1001E2002F010895EFEFF3E06F0188249924E0E1F5
:1001F200F0E08E169F0694F5D401E8E0F0E00E944C
:100202000D0411F4C79801C0C79AD401E4E0F0E0EC
:100212000E940D0411F4C69801C0C69AD401E2E00E
:10022200F0E00E940D0411F4C59801C0C59AF401D2
:10023200A1E0B0E00E940905E03011F4C49801C0C9
:10024200C49AA0E03CDFEC15FD0520F4A0E037DF06
:100252006F015401F40131964F01C9CFE0E00E94D1
:10026200E803D5010E94F703D5010E941504ADE30E
:100272000E949803D601E8EEF3E00E94F604DF0143
:100282000E941504D6010E94EB03D6010E94F703D7
:10029200D6010E941504A6E012DFE0936401F093F8
:1002A2006501E8E00E9418040E941B040E94EB030F
:1002B2000E941B040E94F7030E941B040E94150463
:1002C200A5E0FDDEE0936201F0936301E0E00E94AD
:1002D20018040E9420040E94EB030E9420040E9442
:1002E200F7030E9420040E941504A7E0E8DEE093D1
:1002F2006001F0936101E4E00E9418040E94250469
:100302000E94EB030E9425040E94F7030E94250429
:100312000E9415040E942A04E0936601F09367018B
:100322000895BA93AA93AE81BF81A030E1E0BE07DF
:1003320024F0EFEFF0E0EE83FF83AE81BF81A130C6
:10034200EFEFBE0724F4E1E0FFEFEE83FF83AC8121
:10035200BD81A030E1E0BE0724F0EFEFF0E0EC83D6
:10036200FD83AC81BD81A130EFEFBE0724F4E1E053
:10037200FFEFEC83FD83AA81BB81A030E1E0BE07E1
:1003820024F0EFEFF0E0EA83FB83AA81BB81A13086
:10039200EFEFBE0724F4E1E0FFEFEA83FB83A881DD
:1003A200B981A030E1E0BE0724F0EFEFF0E0E8838E
:1003B200F983A881B981A130EFEFBE0724F4E1E00F
:1003C200FFEFE883F983AF81AA231AF09098EE81B8
:1003D20003C0909AEE81E150ECBFAD81AA2322F0D6
:1003E2009198EC81FD8105C0919AEC81FD81E150EB
:1003F200FF4FF9BDE8BDAB81AA2322F09298EA81B2
:10040200FB8105C0929AEA81FB81E150FF4FFBBD5F
:10041200EABDA981AA231AF09398E88103C0939AAE
:10042200E881E150E3BD28960895E0E0EABBEBBB2A
:10043200E8EFE7BBE0E0E8BBE4BBE5BBEFEFE1BB25
:10044200E0E0E2BBEBE6E3BFE0E0E2BFECBFE1EA03
:10045200EFBDEBE0EEBDE0E0EDBDECBDE7BDE6BD1E
:10046200EBBDEABDE9BDE8BDE2BDECE6E5BDE0E01D
:10047200E4BDE3BDE9BFE5BFE4BFEAB9E0E8E8B93E
:10048200E0E4E7B9E7E8E6B9E0E0E0BFEDB9E6BFEE
:100492000E947704A0E16AD1A8EBBBE00E94C804E5
:1004A200A1E01CDE6E2E77249DDE3BDEE4EFF1E060
:1004B200CE16DF060CF0C8C00A2C0B2829F40E94C5
:1004C20032040E943804B9C0E2E0F0E0EA15FB050C
:1004D20051F40E943204F201EF5FF0400E943804AE
:1004E2000E943E04AFC0E4E0F0E0EA15FB0539F4F7
:1004F200F2013096BCD10E944404BFD1A3C0E6E011
:10050200F0E0EA15FB0541F40E9449040E944F0401
:10051200D201A150BF4F96C0E8E0F0E0EA15FB051A
:1005220029F4BFD1BBD1D20110968CC0EAE0F0E031
:10053200EA15FB0529F4B5D1B1D1D201109682C0DA
:10054200ECE0F0E0EA15FB0529F4ABD1A7D1D2012A
:10055200109678C0EEE0F0E0EA15FB0531F498D190
:1005620080D1F201E150FF4F68C0E1E0F0E0EA150E
:10057200FB0559F476D1F201E058F04078D1FA93B4
:10058200EA93D201A058BF4F5DC0E3E0F0E0EA1564
:10059200FB0559F4F201E058FF4F69D1FA93EA934F
:1005A200F201E058F04069D14DC0E5E0F0E0EA1513
:1005B200FB0559F4F201E058F04059D1FA93EA935D
:1005C200F201E058FF4F59D13DC0E7E0F0E0EA15F3
:1005D200FB0531F45DD169D1D201A058BF4F32C0C1
:1005E200E9E0F0E0EA15FB0531F452D15ED1D20127
:1005F200A058BF4F27C0EBE0F0E0EA15FB0531F44D
:1006020047D153D1D201A058BF4F1CC0EDE0F0E05A
:10061200EA15FB0549F43CD1F201E058FF4F3ED107
:10062200D201A058B0400EC0EFE0F0E0EA15FB05A1
:1006320051F43BD1F201E058FF4FFA93EA93D20111
:10064200AF5FB0406EDE34C0FFD0A83CE0E0BE0732
:10065200ECF4F201E659F040A0916601B091670115
:10066200EA0FFB1FFA93EA93D201A659B04021D1B7
:10067200D201AA56BF4F1DD1F201EA56FF4FA091F7
:100682006601B0916701AE0FBF1F07C05A924A922E
:100692005A924A925A924A92D20143DEDAD0E40D39
:1006A200F51D0F010FD10ED1FA93EA93D00139DE75
:1006B200FBCEFFCFAA93E5B3EF70AE2FE881E07FC8
:1006C200EA2BE5BB8DE08A95F1F7AA9A8DE08A952F
:1006D200F1F7AA988DE08A95F1F76FC0AA93A881E5
:1006E200E9DFE881E295E883A881E4DF85E88A957D
:1006F200F1F763C0AA93E881F0E0E859FE4FE08188
:10070200A981AE0FEBDFE981E0936C01E881E09310
:100712006D0122960895A2E0E1D0ACE0DFDFA1E016
:10072200DDD0E0E0E0936D01E0936C010895AA93BF
:10073200A881AA3031F0E0916E01A0916C01AE1750
:1007420058F0E0E0EA93A0916D01AF5FA0936D01D4
:10075200D1DFA881AA3089F1E0916C01EF5FE093CB
:100762006C01A89AA881BADFA89827C0AA93E4B31B
:10077200E06FE4BBA29AA09AA19AAA98A898A99815
:10078200E881E0936E01E058E0936A01E881E05469
:10079200E0936B01A4E1B0E00E94C804A4D0A3D00E
:1007A200A2D0A0E287DF0BD0A8E298DFA4E096DF18
:1007B200A5E894DFA6E092DFAEDF2196089588ECEB
:1007C20090E00197F1F708950E94B004F8CFEA9300
:1007D200A0E090CFE4E6F0E00E94F604DF01EAE058
:1007E200F0E00E94FB04E05DAE2FA1CFEAE0F0E072
:1007F2000E94F604DF01EAE0F0E00E94FB04E05D03
:10080200AE2F95CFF2010E94D204DF0108950E941B
:10081200FB04E05DAE2F8BCF0E94F604A1E0B0E0B6
:100822000E940905E0300895EAE0F0E0F0CFEA9393
:10083200A1E060CFA0916401B09165010895A091FB
:100842006201B09163010895A0916001B0916101CC
:100852000895F0DFE0916201F0916301EA1BFB0B66
:100862000895F201E150FF4FFA93EA930895FA9343
:10087200EA93F201EF5FF0400895FA93EA93D2010E
:10088200A150BF4F0895FA93EA93F201309608956A
:10089200F201EF5FF040FA93EA930895FA93EA9334
:1008A200E0CFF201EF5FF040EECFF201E058F0400E
:1008B200F5CFE0916601F0916701AE1BBF0BBA93D1
:1008C200AA930895FA93EA93BADFE0916401F09152
:1008D2006501EA1BFB0BE40DF51D0895FFDEA3E0A5
:1008E200B0E00C94C804A0E3E5DE69CFC098C198DB
:1008F200B89AB99815C0B998B898EE270000B19B7C
:100902000895B09B089504D0B99A02D0B89AE1E054
:100912006DE007C0B99AB89A03D0B898F9DFB998D0
:100922006BE16A95F1F7089578E0B898F1DFB09B32
:10093200FECFEEDF8894B1990894B89AF1DFEE1FEA
:100942007A9599F77A2F772311F4B99801C0B99A59
:10095200DFDFB898E5DFB89ADBDFB998D9CF78E066
:10096200AA0F10F4B99801C0B99ADADFB898D0DFAB
:10097200B09BFECFCDDFB89A7A9591F7B998C8DFD0
:10098200B898CEDFE1E0B199EE27B89AC1CF1096C0
:1009920039F080ED97E00197F1F7A8951197C9F723
:1009A2000895F195E195F0400895FA9FF02DEB9F9F
:1009B200F00DEA9FE02DF10D089534D0F6DF0EF42C
:1009C200F0DF08950024112490E1AA0FBB1F001C40
:1009D200111C0E1A1F0A18F40E0E1F1E01C0A16070
:1009E2009A9599F7FD01D00108951CD0EBDF0EF422
:1009F200D8DF0895E894B7FF04C0A095B09511968A
:100A02006894F7FDCEDFDEDFFD010EF4CADF089544
:100A1200E894F7FF02C0C5DF6894EA23FB230EF4D3
:100A2200C0DF0895E894F7FF02C0BBDF6894B7FF08
:100A320006C0A095B095119600F8039400FA0895A7
:00000001FF
