:100000000C942F000C9400000C9400000C94000041
:100010000C9400000C9400000C9400000C94000060
:100020000C9400000C9400000C9400000C94000050
:100030000C9400000C9400000C9400000C94000040
:100040000C9400000C9400000C9400000C94000030
:100050000C94000080C00200600154000000F8947D
:10006000EE27ECBBF1E0FBBFEBBFE5BF8DE0A2E00C
:10007000BB27ED938A95E9F780E094E0A0E6ED9345
:100080000197E9F7E6E5F0E085919591009761F039
:10009000A591B59105901590BF01F00105900D92C5
:1000A0000197E1F7FB01F0CFEFE5EDBFE4E0EEBF34
:1000B000C0E6D1E00C94FB00AA93E881E064E7B9C4
:1000C0008BE18A95F1F7369A349BFECF349AE4B1EE
:1000D000F5B10C945902EFEFF3E04F01442455249D
:1000E000E0E1F0E04E165F0694F5D201E8E0F0E0C2
:1000F0000E945B0211F4C79801C0C79AD201E4E0E4
:10010000F0E00E945B0211F4C69801C0C69AD201C9
:10011000E2E0F0E00E945B0211F4C59801C0C59ACC
:10012000F201A1E0B0E00E94D802E03011F4C498DE
:1001300001C0C49AA0E0C0DFE815F90520F4A0E0F2
:10014000BBDF4F013201F20131962F01C9CFE0E050
:10015000EA93A0E05AD1D3010E946302D3010E9426
:100160006F02ADE369D1D401E8EEF3E00E94C5026D
:10017000DF010E946F02D401E4E6F0E00E94C502B4
:10018000DF01ADD1D4019FD1D401A9D10895BA9393
:10019000AA93AF81AA231AF09098EE8103C0909A97
:1001A000EE81E150ECBFAD81AA2322F09198EC8161
:1001B000FD8105C0919AEC81FD81E150FF4FF9BDB1
:1001C000E8BDAB81AA2322F09298EA81FB8105C0A9
:1001D000929AEA81FB81E150FF4FFBBDEABDA98104
:1001E000AA231AF09398E88103C0939AE881E1501A
:1001F000E3BD28960895E0E0EABBEBBBE8EFE7BB80
:10020000E0E0E8BBE4BBE5BBEFEFE1BBE0E0E2BB75
:10021000EBE6E3BFE0E0E2BFECBFE1EAEFBDEBE01D
:10022000EEBDE0E0EDBDECBDE7BDE6BDEBBDEABD7A
:10023000E9BDE8BDE2BDECE6E5BDE0E0E4BDE3BD5F
:10024000E9BFE5BFE4BFEAB9E0E8E8B9E0E4E7B94F
:10025000E7E8E6B9E0E0E0BFEDB9E6BFA0E100D134
:100260003ADFE4EFF1E08E169F060CF0A6C0062CF4
:10027000072829F43BD13AD1E1E0FFEF98C0E2E052
:10028000F0E0E615F70529F431D135D1A0E0B0E072
:1002900092C0E4E0F0E0E615F70531F427D134D15F
:1002A00033D1AFEFB0E087C0E6E0F0E0E615F70548
:1002B00029F421D12ED1AFEFB0E07DC0E8E0F0E02D
:1002C000E615F70531F420D11FD110D1AFEFB0E022
:1002D00072C0EAE0F0E0E615F70531F415D119D166
:1002E00005D1A0E0B0E067C0ECE0F0E0E615F7056E
:1002F00029F40AD1FBD0EFEFF0E059C0EEE0F0E0D6
:10030000E615F70529F405D1F1D0E0E0F0E04FC0A3
:10031000E1E0F0E0E615F70529F4E8D0FFD0A0E829
:10032000BFEF49C0E3E0F0E0E615F70531F4DED0B9
:10033000FAD0EAD0A0E8B0E03EC0E5E0F0E0E61593
:10034000F70529F4EBD0EFD0AFEFB0E034C0E7E031
:10035000F0E0E615F70549F4E6D0D6D0E0E8F0E0A5
:10036000FA93EA93AFEFB0E026C0E9E0F0E0E615DB
:10037000F70531F4C9D0D7D0B9D0A0E8B0E01BC0A0
:10038000EBE0F0E0E615F70549F4BED0E0E8F0E078
:10039000FA93EA93ABD0A0E8BFEF0DC0EDE0F0E038
:1003A000E615F70549F4BFD0A1D0E0E8F0E0FA93F4
:1003B000EA93A1E0BFEFEBDE06C0ABD0AAD0A9D094
:1003C000A0E0B0E0E4DE4CCFFFCFAA93E5B3EF703E
:1003D000AE2FE881E07FEA2BE5BB8DE08A95F1F74F
:1003E000AA9A8DE08A95F1F7AA988DE08A95F1F79F
:1003F00060C0AA93A881E9DFE881E295E883A8813B
:10040000E4DF85E88A95F1F754C0AA93E881F0E02B
:10041000E05AFE4FE081A981AE0FEBDFB980A880E2
:1004200022960895A2E084D0ACE0E3DFA1E080D082
:10043000E0E0AE2EBE2E0895AA93A881AA3011F056
:10044000BD1440F0E0E0EA93A394AA2DDEDFA8817A
:10045000AA3079F1B394A89AA881CBDFA89829C0D3
:10046000AA93E4B3E06FE4BBA29AA09AA19AAA98D7
:10047000A898A998D880E881E058E0936201E881C3
:10048000E054E0936301A4E1B0E00E94A40255D0DF
:1004900054D053D0A0E299DF88EC90E00197F1F7B7
:1004A000A8E2A7DFA4E0A5DFA5E8A3DFA6E0A1DF1F
:1004B000B9DF219608950E94C502A1E0B0E00E9434
:1004C000D802E0300895EAE0F0E00E94C502DF01C2
:1004D000EAE0F0E00E94CA02E05DAE2FADCFEAE0B4
:1004E000F0E00E94CA02E05DAE2FA6CFEFEFF0E091
:1004F000FA93EA930895E0E0F0E0FA93EA93E1E0FA
:10050000FFEFFA93EA930895E1E0FFEFFA93EA939D
:100510000895E0E0F0E0FA93EA930895E0E8F0E06F
:10052000FA93EA93F1CFE0E8FFEFFA93EA930895A4
:1005300060DFA3E0B0E00C94A402A0E346DF88EC07
:1005400090E00197F1F70895109639F080ED97E06B
:100550000197F1F7A8951197C9F70895F195E195DD
:10056000F04008950024112490E1AA0FBB1F001C45
:10057000111C0E1A1F0A18F40E0E1F1E01C0A160D6
:100580009A9599F7FD01D00108951CD0EBDF0EF488
:10059000E5DF0895E894B7FF04C0A095B0951196E3
:1005A0006894F7FDDBDFDEDFFD010EF4D7DF089591
:1005B000E894F7FF02C0D2DF6894EA23FB230EF42D
:1005C000CDDF0895E894F7FF02C0C8DF6894B7FF55
:1005D00006C0A095B095119600F8039400FA08950E
:00000001FF
