:040000000C94330029
:100004000C9400000C9400000C9400000C9400006C
:100014000C9400000C9400000C9400000C9400005C
:100024000C9400000C9400000C9400000C9400004C
:100034000C9400000C9400000C9400000C9400003C
:100044000C9400000C9400000C9400000C9400002C
:10005400000080C00200060054000200680156003F
:100064000000F894EE27ECBBF1E0FBBFEBBFE5BF6B
:100074008DE0A2E0BB27ED938A95E9F780E094E058
:10008400A0E6ED930197E9F7E8E5F0E08591959115
:10009400009761F0A591B59105901590BF01F0010D
:1000A40005900D920197E1F7FB01F0CFEFE5EDBF6D
:1000B400E4E0EEBFC0E6D1E00C94FD02AA93E8812F
:1000C400E064E7B98BE18A95F1F7369A349BFECF69
:1000D400349AE4B1F5B10C948A04AA931A930E9459
:1000E4008C040E941D050E948C04A0EC0E949104C3
:1000F400A9810E9491040E941D050E948C04A1EC18
:100104000E949104A0E00E9436051E2F0E948C04D8
:100114000E942C050E948C04E12F18810C94360453
:10012400A1E0DBDFF0E0E619F7092F010024401419
:1001340050040CF42201E0E8F0E0E415F50524F4A1
:10014400EFEFF0E04E1A5F0AE0E8FFEF4E165F06AD
:1001540024F4F201E150FF4F2F0100244014500415
:1001640074F0E8E00E949404ABE20E944404D201DB
:100174000E949704D2010E94A304D20114C0002457
:1001840040145004A4F4E8E00E949404ADE20E94F8
:1001940044040E94AF040E9497040E94AF040E948A
:1001A400A3040E94AF04EAE0F0E00E94B404E4E196
:1001B400F0E04E165F062CF4ECEEFFEFE415F505C7
:1001C4000CF007C0F201A3E0B0E00E947F052F010C
:1001D40002C0440C551CF201AFEFBFEF0E947F0533
:1001E4002F010895EFEFF3E0E0936001F0936101D4
:1001F400AA24BB24E0E1F0E0AE16BF06D4F5D50195
:10020400E8E0F0E00E94B90411F4C79801C0C79A6D
:10021400D501E4E0F0E00E94B90411F4C69801C0ED
:10022400C69AD501E2E0F0E00E94B90411F4C59841
:1002340001C0C59AF501A1E0B0E00E94AA05E03032
:1002440011F4C49801C0C49AA0E038DFDF01E09142
:100254006001F0916101AE17BF0738F4A0E02EDF12
:10026400E0936001F09361016501F50131965F014E
:10027400C1CFE0E00E949404D6010E94A304D601F9
:100284000E94C104ADE30E9444040E94C404E8EE49
:10029400F3E00E949705DF010E94C1040E94C40498
:1002A4000E9497040E94C4040E94A3040E94C404F0
:1002B4000E94C104A6E002DFE0936401F0936501AB
:1002C400E8E00E94C9040E94CC040E9497040E94A2
:1002D400CC040E94A3040E94CC040E94C104A5E0A3
:1002E400EDDEE0936601F0936701E0E00E94C9044B
:1002F4000E94D1040E9497040E94D1040E94A30486
:100304000E94D1040E94C104A7E0D8DEE0936201F8
:10031400F0936301E4E00E94C9040E94D6040E94A1
:1003240097040E94D6040E94A3040E94D6040E944B
:10033400C1040E94CC04E0916601F0916701EA1BBC
:10034400FB0B4F010895BA93AA93AE81BF81A030ED
:10035400E1E0BE0724F0EFEFF0E0EE83FF83AC8131
:10036400BD81A030E1E0BE0724F0EFEFF0E0EC83C4
:10037400FD83A881B981A030E1E0BE0724F0EFEF4E
:10038400F0E0E883F983AA81BB81A030E1E0BE07F5
:1003940024F0EFEFF0E0EA83FB83AE81BF81A1306C
:1003A400EFEFBE0724F4E1E0FFEFEE83FF83AC81BF
:1003B400BD81A130EFEFBE0724F4E1E0FFEFEC8351
:1003C400FD83A881B981A130EFEFBE0724F4E1E0F9
:1003D400FFEFE883F983AA81BB81A130EFEFBE0769
:1003E40024F4E1E0FFEFEA83FB83AF81AA231AF050
:1003F4009098EE8103C0909AEE81E150ECBFAD81FC
:10040400AA2322F09198EC81FD8105C0919AEC8198
:10041400FD81E150FF4FF9BDE8BDAB81AA2322F075
:100424009298EA81FB8105C0929AEA81FB81E150AE
:10043400FF4FFBBDEABDA981AA231AF09398E88176
:1004440003C0939AE881E150E3BD28960895BA93D6
:10045400AA93E881F981309769F4EFEFF0E0FA9319
:10046400EA93FA93EA93E1E0FFEFFA93EA93A1E0C7
:10047400BFEFBFC0A881B981149751F40E94DB0477
:100484000E94E1040E94E104D201A150BF4FB1C017
:10049400A881B981169751F40E94E7040E94E104EF
:1004A4000E94E704D201A150BF4FA3C0A881B98123
:1004B400189741F40E94E1040E94EC04D201A15077
:1004C400BF4F97C0A881B9811A9749F40E94E104EB
:1004D4000E94E7040E94DB04D20110968AC0A8811E
:1004E400B9811C9741F40E94E1040E94DB04F201EB
:1004F400E150FF4F79C0A881B9811E9739F40E9459
:10050400E7040E94DB04F20130966EC0A881B98131
:10051400119741F40E94DB040E94EF04D201A05819
:10052400B04067C0A881B981139751F40E94DB04DD
:100534000E94F5040E94E104D201A058BF4F59C0A3
:10054400A881B981159741F40E94EF040E94F50433
:10055400D201A150BF4F4DC0A881B981179769F44A
:100564000E94F5040E94E104F201E058FF4FFA935F
:10057400EA93D201A150BF4F3CC0A881B981199719
:1005840059F40E94E104F201E058F0400E94EC04A6
:10059400D201A058BF4F2DC0A881B9811B9759F42F
:1005A4000E94E104F201E058FF4F0E94EC04D201E2
:1005B400A058B0401EC0A881B9811D9749F4F2012A
:1005C400E058F0400E94EC04F201E058FF4F0CC0E8
:1005D400A881B9811F9771F4F201E058FF4F0E947E
:1005E400EC04F201E058F040FA93EA93D201AF5FD1
:1005F400B040A9DE39C1E0E0EABBEBBBE8EFE7BB02
:10060400E0E0E8BBE4BBE5BBEFEFE1BBE0E0E2BB6D
:10061400EBE6E3BFE0E0E2BFECBFE1EAEFBDEBE015
:10062400EEBDE0E0EDBDECBDE7BDE6BDEBBDEABD72
:10063400E9BDE8BDE2BDECE6E5BDE0E0E4BDE3BD57
:10064400E9BFE5BFE4BFEAB9E0E8E8B9E0E4E7B947
:10065400E7E8E6B9E0E0E0BFEDB9E6BF0E941805BF
:10066400A0E12FD1A0EDB7E00E946905A1E035DD3E
:100674006E2E7724BED186D1A43FE1E0BE070CF0F4
:10068400A6C088D1AD32E1E0BE07B4F0E8E0F0E006
:10069400CE16DF068CF4ADD17DD1A139E1E0BE07E1
:1006A40024F0ACE0B0E0D3DE06C074D1AA3FE0E0B1
:1006B400BE0714F0A2D1EACF72D1AD32E1E0BE0799
:1006C400B4F0E8E0F0E0EC15FD058CF492D167D1CC
:1006D400A139E1E0BE0724F0A4E0B0E0B8DE06C032
:1006E4005ED1AA3FE0E0BE0714F087D1EACF0C2C1C
:1006F4000D2811F4A0E068C0E1E0F0E0EC15FD0580
:1007040011F4A1E061C0E2E0F0E0EC15FD0511F4A4
:10071400A3E05AC0E3E0F0E0EC15FD0511F4A5E018
:1007240053C0E4E0F0E0EC15FD0511F4A6E04CC084
:10073400E5E0F0E0EC15FD0511F4A7E045C0E6E0C6
:10074400F0E0EC15FD0511F4A8E03EC0E7E0F0E0B0
:10075400EC15FD0511F4A9E037C0E8E0F0E0EC1574
:10076400FD0511F4AAE030C0E9E0F0E0EC15FD0568
:1007740011F4A7E029C0EAE0F0E0EC15FD0511F45E
:10078400A8E022C0EBE0F0E0EC15FD0511F4A9E0CF
:100794001BC0ECE0F0E0EC15FD0511F4AAE014C078
:1007A400EDE0F0E0EC15FD0511F4ABE00DC0EEE07A
:1007B400F0E0EC15FD0511F4ADE006C0EFE0F0E06B
:1007C400EC15FD0519F4AFE0B0E041DE1CC0ECD03F
:1007D400AA3FE0E0BE077CF4F201E659F040DF01F5
:1007E400E80DF91DFA93EA93FD0110D10FD1E80D3C
:1007F400F91DDF0107C05A924A925A924A925A92BC
:100804004A92D201A0DD36CFFFCFAA93E5B3EF70B1
:10081400AE2FE881E07FEA2BE5BB8DE08A95F1F706
:10082400AA9A8DE08A95F1F7AA988DE08A95F1F756
:100834006FC0AA93A881E9DFE881E295E883A881E3
:10084400E4DF85E88A95F1F763C0AA93E881F0E0D4
:10085400E859FE4FE081A981AE0FEBDFE981E09317
:100864006C01E881E0936D0122960895A2E0D6D050
:10087400ACE0DFDFA1E0D2D0E0E0E0936D01E093F3
:100884006C010895AA93A881AA3031F0E0916E0119
:10089400A0916C01AE1758F0E0E0EA93A0916D01CD
:1008A400AF5FA0936D01D1DFA881AA3089F1E091F7
:1008B4006C01EF5FE0936C01A89AA881BADFA89855
:1008C40027C0AA93E4B3E06FE4BBA29AA09AA19ACA
:1008D400AA98A898A998E881E0936E01E058E0935B
:1008E4006A01E881E054E0936B01A4E1B0E00E9466
:1008F400690599D098D097D0A0E287DF0BD0A8E201
:1009040098DFA4E096DFA5E894DFA6E092DFAEDFEF
:100914002196089588EC90E00197F1F708950E94DC
:100924005105F8CFEA93A0E090CFE4E6F0E00E940E
:100934009705DF01EAE0F0E00E949C05E05DAE2F40
:10094400A1CFEAE0F0E00E949705DF01EAE0F0E0E1
:100954000E949C05E05DAE2F95CFF2010E947305C5
:10096400DF0108950E949C05E05DAE2F8BCF0E94AD
:100974009705A1E0B0E00E94AA05E0300895EAE0FE
:10098400F0E0F0CFA0916001B09161010895EA9385
:10099400A1E05BCFA0916401B09165010895A0919D
:1009A4006601B09167010895A0916201B09163015D
:1009B4000895F201E150FF4FFA93EA930895F2018A
:1009C400EF5FF040FA93EA930895F2013096FA93B8
:1009D400EA930895FA93EA93ECCFF201E058FF4FBB
:1009E400FA93EA93ECCFF201E058F040FA93EA93D9
:1009F40008950E94F4000C9492005A924A925A92DA
:100A04004A925A924A92D2010C94A501E819F90922
:100A1400FA93EA93F201EA56FF4F08950ADFA3E03E
:100A2400B0E00C946905A0E3F0DE74CFC098C198DF
:100A3400B89AB99815C0B998B898EE270000B19B38
:100A44000895B09B089504D0B99A02D0B89AE1E011
:100A54006DE007C0B99AB89A03D0B898F9DFB9988D
:100A64006BE16A95F1F7089578E0B898F1DFB09BEF
:100A7400FECFEEDF8894B1990894B89AF1DFEE1FA7
:100A84007A9599F77A2F772311F4B99801C0B99A16
:100A9400DFDFB898E5DFB89ADBDFB998D9CF78E023
:100AA400AA0F10F4B99801C0B99ADADFB898D0DF68
:100AB400B09BFECFCDDFB89A7A9591F7B998C8DF8D
:100AC400B898CEDFE1E0B199EE27B89AC1CF10967D
:100AD40039F080ED97E00197F1F7A8951197C9F7E0
:100AE4000895F195E195F0400895FA9FF02DEB9F5C
:100AF400F00DEA9FE02DF10D089534D0F6DF0EF4E9
:100B0400F0DF08950024112490E1AA0FBB1F001CFC
:100B1400111C0E1A1F0A18F40E0E1F1E01C0A1602C
:100B24009A9599F7FD01D00108951CD0EBDF0EF4DE
:100B3400D8DF0895E894B7FF04C0A095B095119646
:100B44006894F7FDCEDFDEDFFD010EF4CADF089501
:100B5400E894F7FF02C0C5DF6894EA23FB230EF490
:100B6400C0DF0895E894F7FF02C0BBDF6894B7FFC5
:100B740006C0A095B095119600F8039400FA089564
:00000001FF
